{
  "contractName": "Bidding",
  "abi": [
    {
      "constant": true,
      "inputs": [],
      "name": "TopBid",
      "outputs": [
        {
          "name": "user",
          "type": "address"
        },
        {
          "name": "bidAmount",
          "type": "uint256"
        }
      ],
      "payable": false,
      "stateMutability": "view",
      "type": "function"
    },
    {
      "constant": true,
      "inputs": [],
      "name": "ace",
      "outputs": [
        {
          "name": "",
          "type": "address"
        }
      ],
      "payable": false,
      "stateMutability": "view",
      "type": "function"
    },
    {
      "inputs": [
        {
          "name": "_aceAddress",
          "type": "address"
        }
      ],
      "payable": false,
      "stateMutability": "nonpayable",
      "type": "constructor"
    },
    {
      "constant": false,
      "inputs": [
        {
          "name": "_bidPrice",
          "type": "uint256"
        }
      ],
      "name": "submitBid",
      "outputs": [],
      "payable": false,
      "stateMutability": "nonpayable",
      "type": "function"
    },
    {
      "constant": false,
      "inputs": [
        {
          "name": "_proof",
          "type": "uint24"
        },
        {
          "name": "sender",
          "type": "address"
        },
        {
          "name": "data",
          "type": "bytes"
        }
      ],
      "name": "submitProof",
      "outputs": [
        {
          "name": "result",
          "type": "string"
        }
      ],
      "payable": false,
      "stateMutability": "nonpayable",
      "type": "function"
    },
    {
      "constant": true,
      "inputs": [],
      "name": "getTopBid",
      "outputs": [
        {
          "name": "",
          "type": "address"
        },
        {
          "name": "",
          "type": "uint256"
        }
      ],
      "payable": false,
      "stateMutability": "view",
      "type": "function"
    }
  ],
  "bytecode": "0x608060405234801561001057600080fd5b5060405160208061052c8339810180604052602081101561003057600080fd5b505160008054600160a060020a03909216600160a060020a03199092169190911790556104ca806100626000396000f3fe608060405234801561001057600080fd5b50600436106100575760003560e01c8063509fcd651461005c57806368aaf5011461009457806374bdda15146101d6578063a5c8fa84146101f5578063e14ae9e014610226575b600080fd5b61006461022e565b6040805173ffffffffffffffffffffffffffffffffffffffff909316835260208301919091528051918290030190f35b610161600480360360608110156100aa57600080fd5b62ffffff8235169173ffffffffffffffffffffffffffffffffffffffff602082013516918101906060810160408201356401000000008111156100ec57600080fd5b8201836020820111156100fe57600080fd5b8035906020019184600183028401116401000000008311171561012057600080fd5b91908080601f016020809104026020016040519081016040528093929190818152602001838380828437600092019190915250929550610250945050505050565b6040805160208082528351818301528351919283929083019185019080838360005b8381101561019b578181015183820152602001610183565b50505050905090810190601f1680156101c85780820380516001836020036101000a031916815260200191505b509250505060405180910390f35b6101f3600480360360208110156101ec57600080fd5b50356103f3565b005b6101fd61043c565b6040805173ffffffffffffffffffffffffffffffffffffffff9092168252519081900360200190f35b610064610458565b60015460025473ffffffffffffffffffffffffffffffffffffffff9091169082565b600080546040517fa2866ea300000000000000000000000000000000000000000000000000000000815262ffffff86166004820190815273ffffffffffffffffffffffffffffffffffffffff868116602484015260606044840181815287516064860152875191968796939093169463a2866ea3948b948b948b949293608401916020860191908190849084905b838110156102f65781810151838201526020016102de565b50505050905090810190601f1680156103235780820380516001836020036101000a031916815260200191505b50945050505050600060405180830381600087803b15801561034457600080fd5b505af1158015610358573d6000803e3d6000fd5b505050506040513d6000823e601f3d908101601f19168201604052602081101561038157600080fd5b81019080805164010000000081111561039957600080fd5b820160208101848111156103ac57600080fd5b81516401000000008111828201871017156103c657600080fd5b505092919050505090506060604051908101604052806025815260200161047a6025913995945050505050565b600254811161040157600080fd5b604080518082019091523380825260209091018290526001805473ffffffffffffffffffffffffffffffffffffffff19169091179055600255565b60005473ffffffffffffffffffffffffffffffffffffffff1681565b60015460025473ffffffffffffffffffffffffffffffffffffffff9091169156fe436f6e67726174756c6174696f6e732c20796f7520776f6e21202d205465616d205465616da165627a7a72305820d578b974c1900bfa87e9249b8ab4fc975a0a24d7b608c8f7ea6df3708b2f63d40029",
  "source": "pragma solidity >=0.5.0 <0.6.0;\n\nimport \"@aztec/protocol/contracts/ACE/ACE.sol\";\n\n\ncontract Bidding\n{\n    ACE public ace;\n\n    constructor(address _aceAddress) public {\n        ace = ACE(_aceAddress);  //Aztec Cryptography Engine\n    }\n\n    // Bids will have a user and an amount\n    struct Bid {\n        address user;\n        uint bidAmount;\n    }\n\n    // Keeps track of the top bid\n    Bid public TopBid;\n\n\n    // UI will connect here to submit bid price\n    function submitBid(uint _bidPrice) public {\n\n        //Non-private checking of new bid\n        require(_bidPrice > TopBid.bidAmount);\n\n        //If new bid is higher, save old and replace\n        //address old_user =  TopBid.user;\n        TopBid = Bid(msg.sender, _bidPrice);\n    }\n\n    // UI will connect here to submit bid price\n    function submitProof(uint24 _proof, address sender, bytes memory data) public returns (string memory result){\n\n        bytes memory proofOutputs =  ace.validateProof(_proof, sender, data);\n        result = 'Congratulations, you won! - Team Team';\n        return result;\n    }\n\n    //Function to return top bid\n    function getTopBid() public view returns (address, uint) {\n\n        return (TopBid.user, TopBid.bidAmount);\n    }\n}",
  "sourcePath": "/Users/e653788/aztec-ganache-starter-kit/contracts/Bidding.sol",
  "compiler": {
    "name": "solc",
    "version": "0.5.4+commit.9549d8ff.Emscripten.clang"
  },
  "schemaVersion": "3.0.15",
  "updatedAt": "2019-09-08T01:44:14.395Z",
  "devdoc": {
    "methods": {}
  },
  "userdoc": {
    "methods": {}
  }
}