{
  "contractName": "BiddingContract",
  "abi": [
    {
      "constant": false,
      "inputs": [
        {
          "name": "_bidPrice",
          "type": "uint256"
        }
      ],
      "name": "submitBid",
      "outputs": [],
      "payable": false,
      "stateMutability": "nonpayable",
      "type": "function"
    },
    {
      "constant": true,
      "inputs": [],
      "name": "getTopBid",
      "outputs": [
        {
          "name": "",
          "type": "address"
        },
        {
          "name": "",
          "type": "uint256"
        }
      ],
      "payable": false,
      "stateMutability": "view",
      "type": "function"
    }
  ],
  "bytecode": "0x608060405234801561001057600080fd5b5061011e806100206000396000f3fe6080604052348015600f57600080fd5b506004361060325760003560e01c806374bdda15146037578063e14ae9e0146053575b600080fd5b605160048036036020811015604b57600080fd5b50356089565b005b605960d1565b6040805173ffffffffffffffffffffffffffffffffffffffff909316835260208301919091528051918290030190f35b6001548111609657600080fd5b600080546040805180820190915233808252602090910184905273ffffffffffffffffffffffffffffffffffffffff19909116179055600155565b60005460015473ffffffffffffffffffffffffffffffffffffffff9091169156fea165627a7a72305820fc7440f2ebcb01798d06d3b2ff4b6f47eec72e0d8ed18f8305ee5875ca316ec50029",
  "source": "pragma solidity >=0.5.0 <0.6.0;\n\ncontract BiddingContract\n{\n    // Bids will have a user and an amount\n    struct Bid {\n        address user;\n        uint bidAmount;\n    }\n\n    // Keeps track of the top bid\n    Bid TopBid;\n\n\n    // UI will connect here to submit bid price\n    function submitBid(uint _bidPrice) public {\n\n        //Non-private checking of new bid\n        require(_bidPrice > TopBid.bidAmount);\n        //If new bid is higher, save old and replace\n        address old_user =  TopBid.user;\n        TopBid = Bid(msg.sender, _bidPrice);\n    }\n\n    //Function to return top bid\n    function getTopBid() public view returns (address, uint) {\n\n        return (TopBid.user, TopBid.bidAmount);\n    }\n}",
  "sourcePath": "/Users/e653788/aztec-ganache-starter-kit/contracts/Bidding.sol",
  "compiler": {
    "name": "solc",
    "version": "0.5.4+commit.9549d8ff.Emscripten.clang"
  },
  "schemaVersion": "3.0.15",
  "updatedAt": "2019-09-07T23:58:31.487Z",
  "devdoc": {
    "methods": {}
  },
  "userdoc": {
    "methods": {}
  }
}