{
  "contractName": "Bidding",
  "abi": [
    {
      "constant": true,
      "inputs": [],
      "name": "TopBid",
      "outputs": [
        {
          "name": "user",
          "type": "address"
        },
        {
          "name": "bidAmount",
          "type": "uint256"
        }
      ],
      "payable": false,
      "stateMutability": "view",
      "type": "function"
    },
    {
      "constant": true,
      "inputs": [],
      "name": "TopBidNote",
      "outputs": [
        {
          "name": "user",
          "type": "string"
        },
        {
          "name": "bidAmount",
          "type": "uint256"
        }
      ],
      "payable": false,
      "stateMutability": "view",
      "type": "function"
    },
    {
      "constant": true,
      "inputs": [],
      "name": "ace",
      "outputs": [
        {
          "name": "",
          "type": "address"
        }
      ],
      "payable": false,
      "stateMutability": "view",
      "type": "function"
    },
    {
      "inputs": [
        {
          "name": "_aceAddress",
          "type": "address"
        }
      ],
      "payable": false,
      "stateMutability": "nonpayable",
      "type": "constructor"
    },
    {
      "constant": false,
      "inputs": [
        {
          "name": "user",
          "type": "address"
        },
        {
          "name": "bidAmount",
          "type": "uint256"
        }
      ],
      "name": "setTopBid",
      "outputs": [],
      "payable": false,
      "stateMutability": "nonpayable",
      "type": "function"
    },
    {
      "constant": false,
      "inputs": [
        {
          "name": "user",
          "type": "string"
        },
        {
          "name": "bidAmount",
          "type": "uint256"
        }
      ],
      "name": "setTopBidNote",
      "outputs": [],
      "payable": false,
      "stateMutability": "nonpayable",
      "type": "function"
    },
    {
      "constant": false,
      "inputs": [
        {
          "name": "_proof",
          "type": "uint24"
        },
        {
          "name": "sender",
          "type": "address"
        },
        {
          "name": "data",
          "type": "bytes"
        }
      ],
      "name": "submitProof",
      "outputs": [
        {
          "name": "result",
          "type": "string"
        }
      ],
      "payable": false,
      "stateMutability": "nonpayable",
      "type": "function"
    },
    {
      "constant": true,
      "inputs": [],
      "name": "getTopBid",
      "outputs": [
        {
          "name": "",
          "type": "address"
        },
        {
          "name": "",
          "type": "uint256"
        }
      ],
      "payable": false,
      "stateMutability": "view",
      "type": "function"
    },
    {
      "constant": true,
      "inputs": [],
      "name": "getTopBidNote",
      "outputs": [
        {
          "name": "",
          "type": "string"
        },
        {
          "name": "",
          "type": "uint256"
        }
      ],
      "payable": false,
      "stateMutability": "view",
      "type": "function"
    }
  ],
  "bytecode": "0x608060405234801561001057600080fd5b506040516020806108958339810180604052602081101561003057600080fd5b505160008054600160a060020a03909216600160a060020a0319909216919091179055610833806100626000396000f3fe608060405234801561001057600080fd5b50600436106100885760003560e01c80637d91b81f1161005b5780637d91b81f146102ea578063a5c8fa8414610371578063cdf747e7146103a2578063e14ae9e0146103aa57610088565b806312499abe1461008d578063433df44a146100c8578063509fcd651461017057806368aaf501146101a8575b600080fd5b6100c6600480360360408110156100a357600080fd5b5073ffffffffffffffffffffffffffffffffffffffff81351690602001356103b2565b005b6100c6600480360360408110156100de57600080fd5b8101906020810181356401000000008111156100f957600080fd5b82018360208201111561010b57600080fd5b8035906020019184600183028401116401000000008311171561012d57600080fd5b91908080601f01602080910402602001604051908101604052809392919081815260200183838082843760009201919091525092955050913592506103f2915050565b61017861040c565b6040805173ffffffffffffffffffffffffffffffffffffffff909316835260208301919091528051918290030190f35b610275600480360360608110156101be57600080fd5b62ffffff8235169173ffffffffffffffffffffffffffffffffffffffff6020820135169181019060608101604082013564010000000081111561020057600080fd5b82018360208201111561021257600080fd5b8035906020019184600183028401116401000000008311171561023457600080fd5b91908080601f01602080910402602001604051908101604052809392919081815260200183838082843760009201919091525092955061042e945050505050565b6040805160208082528351818301528351919283929083019185019080838360005b838110156102af578181015183820152602001610297565b50505050905090810190601f1680156102dc5780820380516001836020036101000a031916815260200191505b509250505060405180910390f35b6102f26105d1565b6040518080602001838152602001828103825284818151815260200191508051906020019080838360005b8381101561033557818101518382015260200161031d565b50505050905090810190601f1680156103625780820380516001836020036101000a031916815260200191505b50935050505060405180910390f35b610379610669565b6040805173ffffffffffffffffffffffffffffffffffffffff9092168252519081900360200190f35b6102f2610685565b610178610726565b6001805473ffffffffffffffffffffffffffffffffffffffff191673ffffffffffffffffffffffffffffffffffffffff9390931692909217909155600255565b8151610405906003906020850190610747565b5060045550565b60015460025473ffffffffffffffffffffffffffffffffffffffff9091169082565b600080546040517fa2866ea300000000000000000000000000000000000000000000000000000000815262ffffff86166004820190815273ffffffffffffffffffffffffffffffffffffffff868116602484015260606044840181815287516064860152875191968796939093169463a2866ea3948b948b948b949293608401916020860191908190849084905b838110156104d45781810151838201526020016104bc565b50505050905090810190601f1680156105015780820380516001836020036101000a031916815260200191505b50945050505050600060405180830381600087803b15801561052257600080fd5b505af1158015610536573d6000803e3d6000fd5b505050506040513d6000823e601f3d908101601f19168201604052602081101561055f57600080fd5b81019080805164010000000081111561057757600080fd5b8201602081018481111561058a57600080fd5b81516401000000008111828201871017156105a457600080fd5b50509291905050509050606060405190810160405280602581526020016107e36025913995945050505050565b60038054604080516020601f600260001961010060018816150201909516949094049384018190048102820181019092528281529183918301828280156106595780601f1061062e57610100808354040283529160200191610659565b820191906000526020600020905b81548152906001019060200180831161063c57829003601f168201915b5050505050908060010154905082565b60005473ffffffffffffffffffffffffffffffffffffffff1681565b6004546003805460408051602060026001851615610100026000190190941693909304601f810184900484028201840190925281815260609460009493909284918301828280156107175780601f106106ec57610100808354040283529160200191610717565b820191906000526020600020905b8154815290600101906020018083116106fa57829003601f168201915b50505050509150915091509091565b60015460025473ffffffffffffffffffffffffffffffffffffffff90911691565b828054600181600116156101000203166002900490600052602060002090601f016020900481019282601f1061078857805160ff19168380011785556107b5565b828001600101855582156107b5579182015b828111156107b557825182559160200191906001019061079a565b506107c19291506107c5565b5090565b6107df91905b808211156107c157600081556001016107cb565b9056fe436f6e67726174756c6174696f6e732c20796f7520776f6e21202d205465616d205465616da165627a7a7230582085ccb00f753b8060b3715b0767338ed6714ac5f34312b881a7354c5b0745f6f30029",
  "source": "pragma solidity >=0.5.0 <0.6.0;\n\nimport \"@aztec/protocol/contracts/ACE/ACE.sol\";\n\n\ncontract Bidding\n{\n    ACE public ace;\n\n    constructor(address _aceAddress) public {\n        ace = ACE(_aceAddress);  //Aztec Cryptography Engine\n    }\n\n    // Bids will have a user and an amount\n    struct Bid {\n        address user;\n        uint bidAmount;\n    }\n\n    // Bids will have a user and an amount\n    struct BidNote {\n        string user;\n        uint bidAmount;\n    }\n    // Keeps track of the top bid\n    Bid public TopBid;\n    BidNote public TopBidNote;\n\n    // UI will connect here to submit bid price\n    function setTopBid(address user, uint bidAmount) public {\n        TopBid.user = user;\n        TopBid.bidAmount = bidAmount;\n    }\n\n    // UI will connect here to submit bid price\n    function setTopBidNote(string memory user, uint bidAmount) public {\n        TopBidNote.user = user;\n        TopBidNote.bidAmount = bidAmount;\n    }\n\n    // UI will connect here to submit bid price\n    function submitProof(uint24 _proof, address sender, bytes memory data) public returns (string memory result){\n\n        bytes memory proofOutputs =  ace.validateProof(_proof, sender, data);\n        result = 'Congratulations, you won! - Team Team';\n        return result;\n    }\n\n    //Function to return top bid\n    function getTopBid() public view returns (address, uint) {\n\n        return (TopBid.user, TopBid.bidAmount);\n    }\n\n    //Function to return top bid\n    function getTopBidNote() public view returns (string memory, uint) {\n\n        return (TopBidNote.user, TopBidNote.bidAmount);\n    }\n}",
  "sourcePath": "/Users/e653788/aztec-ganache-starter-kit/contracts/Bidding.sol",
  "compiler": {
    "name": "solc",
    "version": "0.5.4+commit.9549d8ff.Emscripten.clang"
  },
  "schemaVersion": "3.0.15",
  "updatedAt": "2019-09-08T13:32:03.217Z",
  "devdoc": {
    "methods": {}
  },
  "userdoc": {
    "methods": {}
  }
}